:100000000C945D000C9485000C9485000C94850084
:100010000C9485000C9485000C9485000C9485004C
:100020000C9485000C9485000C9485000C94270298
:100030000C9485000C9485000C9485000C9485002C
:100040000C94E8020C9485000C9485000C948500B7
:100050000C9485000C9485000C9485000C9485000C
:100060000C9485000C94850000000007000201003C
:100070000003040600000000000000000000000073
:10008000250028002B0000000000240027002A0083
:10009000040404040404040402020202020203032E
:1000A0000303030301020408102040800102040836
:1000B0001020010204081020C80311241FBECFEF36
:1000C000D8E0DEBFCDBF11E0A0E0B1E0E2EFF8E0A4
:1000D00002C005900D92A030B107D9F721E0A0E051
:1000E000B1E001C01D92A533B207E1F710E0CDE504
:1000F000D0E004C02197FE010E947104CC35D107E5
:10010000C9F70E9432030C94FF030C940000CF93B4
:10011000DF93DC018C918C3008F07AC0CB019927F9
:10012000FC01EC55FF4F2491FC01E057FF4F8491F7
:10013000882399F090E0880F991FFC01EA57FF4F40
:10014000C591D491FC01E458FF4F859194918FB7EC
:10015000F894E881E22BE8838FBF8C91E82FF0E0E0
:100160009F01220F331FE20FF31FEF5EFE4F6F73ED
:100170009081907C692B60839BE011969C931197F2
:1001800020E639E0241B350B37FF02C02D5F3F4FBF
:10019000359527953595279512962C9312976CE0F7
:1001A0000E9465049CE0899FB001112440E050E06A
:1001B0009B01240F351FF901EE0FFF1F2E0F3F1F6C
:1001C000F901EF5EFE4F908196FD16C04F5F5F4FC5
:1001D0004C30510569F781110FC01092800082E008
:1001E000809381001092850010928400B19A8091D2
:1001F0006F00826080936F00EC91F0E0CF01880F78
:10020000991FE80FF91FEF5EFE4F808180648083A5
:100210008C91DF91CF91089590E0FC01E859FF4F58
:100220002491FC01EC55FF4F3491FC01E057FF4F46
:10023000E491EE2309F43CC0222339F1233091F0FC
:1002400038F42130A9F0223001F584B58F7D12C039
:10025000263091F02730A1F02430B9F4809180004D
:100260008F7D03C0809180008F77809380000DC0C8
:1002700084B58F7784BD09C08091B0008F7703C0AB
:100280008091B0008F7D8093B000F0E0EE0FFF1FF3
:10029000E458FF4FA591B4919FB7F894611104C041
:1002A0008C913095382302C0EC913E2B3C939FBF3C
:1002B0000895CF92DF92EF92FF92CF93DF93EC01FC
:1002C000603282E078070CF03DC077FD06C0653BE8
:1002D00071052CF064EB70E002C060E070E0898191
:1002E00028E830E06901C81AD10887FDD394CC0C06
:1002F000DD1CCC0CDD1C0D2C000CEE08FF088A81E7
:1003000028E532E0281B310987FD3395220F331F82
:10031000220F331FC901330FAA0BBB0B9C01AD0188
:100320002C193D094E095F09DB010E942C0424EBC6
:1003300030E040E050E00E940204C20ED31EE41EF2
:10034000F51EB60138813C3080F5298188E890E0BF
:10035000821B910927FD9395880F991F880F991F7C
:100360006817790784F08A8148E552E0481B5109F3
:1003700087FD5395440F551F440F551FCB0146175A
:1003800057070CF4CA014FB7F894232F30E0F90156
:10039000EE0FFF1F2E0F3F1FF901EF5EFE4F02977A
:1003A000880F991F928381834FBFDF91CF91FF9078
:1003B000EF90DF90CF9008953FB7F89480910501BA
:1003C00090910601A0910701B091080126B5A89B64
:1003D00005C02F3F19F00196A11DB11D3FBFBA2FD7
:1003E000A92F982F8827820F911DA11DB11DBC0137
:1003F000CD0142E0660F771F881F991F4A95D1F7FC
:100400000895CF92DF92EF92FF92CF93DF936B012B
:100410007C010E94DC01EB01C114D104E104F10470
:1004200079F00E94DC016C1B7D0B683E7340A0F3E9
:1004300081E0C81AD108E108F108C851DC4FECCFBF
:10044000DF91CF91FF90EF90DF90CF9008951F92B2
:100450000F920FB60F9211242F933F934F935F93F8
:100460006F937F938F939F93AF93BF93EF93FF937C
:100470008091100187FF05C01092850010928400C2
:100480001BC020911001022E000C330B80910F0134
:1004900090E02817390784F480911001082E000C91
:1004A000990BFC01EE0FFF1F8E0F9F1FFC01EF5EEB
:1004B000FE4F808186FD15C0809110018F5F809373
:1004C000100120911001022E000C330B80910F01BE
:1004D00090E028173907C4F4809110018C3064F142
:1004E00013C080911001082E000C990BFC01EE0F37
:1004F000FF1F8E0F9F1FFC01EF5EFE4F808160E0AB
:100500008F730E940C01D8CF809184009091850058
:10051000049680349C4918F480E49CE905C08091DD
:1005200084009091850004969093890080938800C0
:100530008FEF809310013BC02091840030918500A3
:1005400080911001082E000C990BFC01EE0FFF1F8B
:100550008E0F9F1FFC01EF5EFE4F81819281820F03
:10056000931F909389008093880080911001082E3A
:10057000000C990BFC01EE0FFF1F8E0F9F1FFC015B
:10058000EF5EFE4F808186FF12C080911001082E21
:10059000000C990BFC01EE0FFF1F8E0F9F1FFC013B
:1005A000EF5EFE4F808161E08F730E940C01FF912E
:1005B000EF91BF91AF919F918F917F916F915F91DB
:1005C0004F913F912F910F900FBE0F901F90189554
:1005D0001F920F920FB60F9211242F933F938F9378
:1005E0009F93AF93BF938091010190910201A091DD
:1005F0000301B09104013091000123E0230F2D3756
:1006000020F40196A11DB11D05C026E8230F029616
:10061000A11DB11D2093000180930101909302015F
:10062000A0930301B093040180910501909106010C
:10063000A0910701B09108010196A11DB11D809301
:10064000050190930601A0930701B0930801BF91A3
:10065000AF919F918F913F912F910F900FBE0F906F
:100660001F901895789484B5826084BD84B58160AC
:1006700084BD85B5826085BD85B5816085BD80916D
:100680006E00816080936E001092810080918100E5
:1006900082608093810080918100816080938100DD
:1006A000809180008160809380008091B10084609F
:1006B0008093B1008091B00081608093B000809100
:1006C0007A00846080937A0080917A0082608093BF
:1006D0007A0080917A00816080937A0080917A001C
:1006E000806880937A001092C10048EE53E066E083
:1006F00070E08CE091E00E94870060E070E08CE0A8
:1007000091E00E94590140ED57E067E070E089E018
:1007100091E00E94870060E070E089E091E00E9433
:100720005901C0E0D0E064E170E08CE091E00E940B
:1007300059016CE370E080E090E00E94010260E00B
:1007400070E08CE091E00E94590168EC70E080E07C
:1007500090E00E94010260E070E089E091E00E9478
:1007600059016CE370E080E090E00E94010264E1D6
:1007700070E089E091E00E94590168EC70E080E04F
:1007800090E00E940102209771F20E940000CBCFFE
:1007900080910F018C30A0F491E0980F90930F019D
:1007A00080930C0190E0FC01EE0FFF1F8E0F9F1F46
:1007B000FC01EF5EFE4F88EB9BE09283818303C0D8
:1007C0008FEF80930C0180910F018C30A0F491E0A9
:1007D000980F90930F018093090190E0FC01EE0FB8
:1007E000FF1F8E0F9F1FFC01EF5EFE4F88EB9BE00B
:1007F0009283818308958FEF809309010895F8947F
:100800000C947704052E97FB1EF400940E941904A3
:1008100057FD07D00E94340407FC03D04EF40C941B
:10082000190450954095309521953F4F4F4F5F4F9C
:10083000089590958095709561957F4F8F4F9F4F4C
:1008400008950E945604A59F900DB49F900DA49FFB
:10085000800D911D11240895B7FF0C9421040E946E
:100860002104821B930B0895A1E21A2EAA1BBB1B25
:10087000FD010DC0AA1FBB1FEE1FFF1FA217B3076C
:10088000E407F50720F0A21BB30BE40BF50B661F82
:10089000771F881F991F1A9469F760957095809546
:1008A00090959B01AC01BD01CF010895A29FB001BD
:1008B000B39FC001A39F700D811D1124911DB29F94
:1008C000700D811D1124911D0895991B79E004C0BC
:1008D000991F961708F0961B881F7A95C9F780957F
:1008E0000895EE0FFF1F0590F491E02D0994F89400
:0208F000FFCF38
:00000001FF
